:04000000E1EF00F03C
:100008002882D9CF04F0DACF05F0F2A40EEF00F081
:1000180010EF00F0D4EF00F0F294000E226E000E04
:10002800D56ED4EF00F0A6CF21F07ACF23F021A22D
:1000380020EF00F022EF00F0B7EF00F0A698A688B6
:10004800000E276EDBEF00F021B42DEF00F02FEF4C
:1000580000F0D4EF00F0010E276ED4EF00F021A4D9
:1000680038EF00F03AEF00F0D4EF00F02350D8A4B6
:1000780040EF00F042EF00F0D4EF00F0020E276EE0
:10008800D4EF00F021A44BEF00F04DEF00F051EF5A
:1000980000F0000E276ED4EF00F02350D8A457EFDD
:1000A80000F059EF00F02FEF00F0000E206E000E68
:1000B8001F6E040E276ED4EF00F021A466EF00F047
:1000C80068EF00F072EF00F02350D8A46EEF00F054
:1000D80070EF00F04DEF00F042EF00F0410E1F24EA
:1000E800D96E0C0E2020DA6E23C0DFFF1F4A202AAB
:1000F800000ED76E000ED66E850ED56E20BE90EF20
:1001080000F0000E1F5C020E2058D8B08EEF00F0F1
:1001180090EF00F0A5EF00F0040E2424016E000E0D
:100128002520026E01501F5C2050800A036E025089
:10013800800A0358D8A0A3EF00F0A5EF00F0A7EFBE
:1001480000F0010E226E20BEB3EF00F0000E1F5C1F
:10015800020E2058D8A0B3EF00F0B5EF00F0D4EFAE
:1001680000F02FEF00F02750016E026A0250000ADB
:10017800D8B4C1EF00F0D4EF00F00150000AD8B4B1
:1001880028EF00F0010AD8B433EF00F0030AD8B41E
:1001980046EF00F0060AD8B461EF00F0D4EF00F0A3
:1001A800A4BAD9EF00F0DBEF00F017EF00F005C0BC
:1001B800DAFF04C0D9FF2892110060EF03F09268BB
:1001C800CF0E936E3B0E946E7C0ED36E0F01505182
:1001D800F00B0C09506F4D51F00B0C094D6F4A5143
:1001E800F00B0C094A6F4751F00B0C09476F000ED2
:1001F800996ECA92CA903C0ECB6ECA84000E3EEC31
:1002080003F0000E1CEC03F0000EFAEC02F0000EF6
:10021800D8EC02F00F0E0F015D6F000E5C6FCF0E71
:10022800C116C196F80EC116C09E380EC012C05035
:10023800F80B0109C06E000E226EBA84B986BA980E
:10024800070E7B6E000E7C6EA68CA69AA696A694C8
:10025800A692A68EA688D09EA38AA49A9D9CF28A6E
:10026800F294F28EF28C8188000E256E000E246EB8
:10027800000ED76E000ED66E850ED56E000E266E59
:100288006CEC02F006C024F007C025F0000E266EC4
:1002980078EF01F026C01AF0030E1A161A461A460D
:1002A800C2501A18830B1A18C26EF80EC11600D065
:1002B80000D000D0C280C282C2B265EF01F067EF01
:1002C80001F060EF01F01B0E2624D96EDA6A000EE9
:1002D800DA22C4CFDFFF000EC36E000EC46EC290D8
:1002E80000D000D000D0262A030E26647EEF01F04D
:1002F80080EF01F04EEF01F025BE8CEF01F0FD0E0E
:10030800245C010E2558D8A08CEF01F08EEF01F087
:1003180093EF01F01C50FAEC02F0BFEF01F0440E2D
:100328002424D96E0C0E2520DA6EDE501C5CD8B061
:10033800A0EF01F0A2EF01F0BCEF01F02250D8B419
:10034800A8EF01F0AAEF01F0BCEF01F081A8AFEF30
:1003580001F0B1EF01F0BCEF01F0440E2424D96E96
:100368000C0E2520DA6EDF50FAEC02F0BFEF01F038
:100378001C50FAEC02F025BECBEF01F0FE0E245C17
:10038800010E2558D8A0CBEF01F0CDEF01F0D2EF48
:1003980001F01B50D8EC02F0FEEF01F0430E2424CC
:1003A800D96E0C0E2520DA6EDE501B5CD8B0DFEF5C
:1003B80001F0E1EF01F0FBEF01F02250D8B4E7EFD4
:1003C80001F0E9EF01F0FBEF01F081A8EEEF01F099
:1003D800F0EF01F0FBEF01F0430E2424D96E0C0E70
:1003E8002520DA6EDF50D8EC02F0FEEF01F01B504A
:1003F800D8EC02F025BE09EF02F02428010E25589A
:10040800D8A009EF02F00BEF02F010EF02F01E5037
:100418003EEC03F03CEF02F0420E2424D96E0C0EA1
:100428002520DA6EDE501E5CD8B01DEF02F01FEFFB
:1004380002F039EF02F02250D8B425EF02F027EF8E
:1004480002F039EF02F081A82CEF02F02EEF02F053
:1004580039EF02F0420E2424D96E0C0E2520DA6EF4
:10046800DF503EEC03F03CEF02F01E503EEC03F090
:10047800410E2424D96E0C0E2520DA6EDE501D5C48
:10048800D8B049EF02F04BEF02F065EF02F02250CE
:10049800D8B451EF02F053EF02F065EF02F081A8F3
:1004A80058EF02F05AEF02F065EF02F0410E2424F3
:1004B800D96E0C0E2520DA6EDF501CEC03F044EFE9
:1004C80001F01D501CEC03F044EF01F0E1EF00F0E7
:1004D80081CF18F082CF19F01950020B086E096A03
:1004E800060ED89008360936E82E75EF02F0195036
:1004F800080B0A6E0B6AD8900A360B36D8900A3663
:100508000B36D8900A360B361950100B0C6E0D6A44
:10051800D8900C360D361850010B0E6E0F6AD89015
:100528000E360F36D8900E360F36D8900E360F3658
:100538001850020B106E116AD8901036113618C078
:1005480012F0D8901232020E12161838E8461F0B15
:10055800010B1210136E146A10501312115014125A
:100568000E5013120F50141219C015F0D8901532EE
:10057800100E151615501312000E14120C501312EB
:100588000D5014120A5013120B5014120850131065
:10059800166E09501410176E1950010B172616C045
:1005A80006F017C007F01200076EFF0E0724F66E5C
:1005B800F76A7E0EF7220800F5CF06F0D8900632CB
:1005C800D89006300F01486FFF0E0724F66EF76AC1
:1005D8007E0EF7220800F5CF06F0030E0616063A3F
:1005E80047510618CF0B0618476F1200076EFF0E0B
:1005F8000724F66EF76A7E0EF7220800F5CF06F09C
:10060800D8900632D89006300F014B6FFF0E0724A2
:10061800F66EF76A7E0EF7220800F5CF06F0030E95
:100628000616063A4A510618CF0B06184A6F1200EA
:10063800076EFF0E0724F66EF76A7E0EF722080093
:10064800F5CF06F0D8900632D89006300F014E6FDD
:10065800FF0E0724F66EF76A7E0EF7220800F5CF24
:1006680006F0030E0616063A4D510618CF0B06186B
:100678004D6F1200076EFF0E0724F66EF76A7E0EA6
:10068800F7220800F5CF06F0D8900632D890063049
:100698000F01516FFF0E0724F66EF76A7E0EF722E0
:1006A8000800F5CF06F0030E0616063A5051061854
:1006B800CF0B0618506F1200000EF66E070EF76E7D
:1006C800000EF86E0900F5CF27F00CEE41F012EE9F
:1006D80000F0EE6AE550E150FCE1E250FAE100EE8C
:1006E8001BF0090EEE6AE806FDE128902892000E3C
:0906F800F86E0001E3EF00F001CF
:107EFE000048494A4B4B4C4D4D4E4F5050515252EB
:107F0E005354555556575758595A5A5B5C5C5D5EDB
:107F1E005F5F606161626364646566666768696914
:107F2E006A6B6B6C6D6E6E6F70707172727374754E
:107F3E007576777778797A7A7B7C7C7D7E7F7F8089
:107F4E00818182838484858686878889898A8B8BC2
:107F5E008C8D8E8E8F9090919293939495959697FB
:107F6E009898999A9A9B9C9D9D9E9F9FA0A1A2A234
:107F7E00A3A4A4A5A6A7A7A8A9A9AAABACACADAE6D
:107F8E00AEAFB0B1B1B2B3B3B4B5B6B6B7B8B8B9A7
:107F9E00BABBBBBCBDBDBEBFC0C0C1C2C2C3C4C5DF
:107FAE00C5C6C7C7C8C9CACACBCCCCCDCECFCFD019
:107FBE00D1D1D2D3D3D4D5D6D6D7D8D8D9DADBDB54
:107FCE00DCDDDDDEDFE0E0E1E2E2E3E4E5E5E6E78D
:107FDE00E7E8E9EAEAEBECECEDEEEFEFF0F1F1F2C7
:107FEE00F3F4F4F5F6F6F7F8F9F9FAFBFBFCFDFEFF
:027FFE00FF0082
:020000040020DA
:08000000FFFFFFFFFFFFFFFF00
:020000040030CA
:0E0000001503797CFF0991FF0FC00FE00F4040
:00000001FF
