:04000000DCEF00F041
:060008001A8254EF03F020
:100018001A80D8CF03F0E8CF04F0E0CF05F0D9CFAD
:1000280006F0DACF07F0C9EF00F0A6CF13F07ACFC9
:1000380015F013A222EF00F024EF00F0ACEF00F06F
:10004800A698A688000E196ED0EF00F013B42FEF13
:1000580000F031EF00F0C9EF00F0010E196E17EF54
:1000680000F013A43AEF00F03CEF00F0C9EF00F005
:100078001550D8A442EF00F044EF00F017EF00F05D
:10008800020E196EC9EF00F013A44DEF00F04FEF08
:1000980000F053EF00F0000E196E17EF00F0155046
:1000A800D8A459EF00F05BEF00F063EF00F0000E0A
:1000B800126E000E116E040E196EC9EF00F0010EDB
:1000C800196EC9EF00F013A46CEF00F06EEF00F0AA
:1000D8007CEF00F01550D8A474EF00F076EF00F034
:1000E80078EF00F044EF00F0000E196EC9EF00F051
:1000F800410E1124D96E0C0E1220DA6E15C0DFFFE6
:10010800114A122A000ED76E000ED66E850ED56ED5
:10011800000E115C020E1258D8B095EF00F097EF60
:1001280000F0A8EF00F0040E1624016E000E172050
:10013800026E0150115C02501258D8A0A6EF00F0D0
:10014800A8EF00F017EF00F0010E146EC9EF00F0F1
:100158001950016E026A0250000AD8B4B6EF00F0D6
:10016800C9EF00F00150000AD8B42AEF00F0010AE4
:10017800D8B435EF00F0030AD8B448EF00F0060A07
:10018800D8B467EF00F0C9EF00F0A4BACEEF00F0E2
:10019800D0EF00F019EF00F007C0DAFF06C0D9FF72
:1001A80005C0E0FF04C0E8FF03C0D8FF1A901000A4
:1001B80034EF03F0FC0ED316D3508F0B6009D36EC7
:1001C8009268DF0E936E3B0E946E0F015051F00B48
:1001D8000C09506F4D51F00B0C094D6F4A51F00B43
:1001E8000C094A6F4751F00B0C09476F000E996EC6
:1001F800CA92CA903C0ECB6ECA84000E12EC03F071
:10020800000EF0EC02F0000ECEEC02F0000EACECAA
:1002180002F00F0E0F015D6F000E5C6FCF0EC1165E
:10022800C196F80EC116C09E380EC012C050F80B09
:100238000109C06EBA84B986BA98070E7B6E000EA3
:100248007C6EA68CA69AA696A694A692A68EA6883A
:10025800D08EA59AA38AA49AF184F28AF294F28E97
:10026800F28C000E176E000E166E000ED76E000E82
:10027800D66E850ED56E000E186E44EC02F008C0DE
:1002880016F009C017F0000E186E75EF01F018C0CF
:100298000CF0030E0C160C460C46C2500C18830BBF
:1002A8000C18C26EF80EC11600D000D000D0C28063
:1002B800C282C2B262EF01F064EF01F05DEF01F0BB
:1002C8000D0E1824D96EDA6A000EDA22C4CFDFFFC9
:1002D800000EC36E000EC46EC29000D000D000D0D5
:1002E800182A030E18647BEF01F07DEF01F04BEF45
:1002F80001F0FD0E165C010E1758D8A086EF01F02C
:1003080088EF01F08DEF01F00E50CEEC02F0B2EF65
:1003180001F0440E1624D96E0C0E1720DA6EDE504A
:100328000E5CD8B09AEF01F09CEF01F0AFEF01F04E
:100338001450D8B4A2EF01F0A4EF01F0AFEF01F030
:10034800440E1624D96E0C0E1720DA6EDF50CEEC50
:1003580002F0B2EF01F00E50CEEC02F0FE0E165C89
:10036800010E1758D8A0BBEF01F0BDEF01F0C2EFA6
:1003780001F00D50ACEC02F0E7EF01F0430E16244B
:10038800D96E0C0E1720DA6EDE500D5CD8B0CFEFA8
:1003980001F0D1EF01F0E4EF01F01450D8B4D7EF39
:1003A80001F0D9EF01F0E4EF01F0430E1624D96E05
:1003B8000C0E1720DA6EDF50ACEC02F0E7EF01F01C
:1003C8000D50ACEC02F01628010E1758D8A0EFEF2C
:1003D80001F0F1EF01F0F6EF01F0105012EC03F02C
:1003E8001BEF02F0420E1624D96E0C0E1720DA6E9F
:1003F800DE50105CD8B003EF02F005EF02F018EF02
:1004080002F01450D8B40BEF02F00DEF02F018EF21
:1004180002F0420E1624D96E0C0E1720DA6EDF5049
:1004280012EC03F01BEF02F0105012EC03F0410E37
:100438001624D96E0C0E1720DA6EDE500F5CD8B079
:1004480028EF02F02AEF02F03DEF02F01450D8B482
:1004580030EF02F032EF02F03DEF02F0410E1624C9
:10046800D96E0C0E1720DA6EDF50F0EC02F041EF77
:1004780001F00F50F0EC02F041EF01F0DCEF00F07A
:10048800000E0B6E000E0A6E82A04DEF02F04FEFC9
:1004980002F051EF02F0010E0B2682A256EF02F095
:1004A80058EF02F05CEF02F0800E0A26000E0B22D5
:1004B80082A661EF02F063EF02F067EF02F0400EF0
:1004C8000A26000E0B2282A86CEF02F06EEF02F0F3
:1004D80072EF02F0200E0A26000E0B2282AA77EF96
:1004E80002F079EF02F07DEF02F0100E0A26000EFE
:1004F8000B2281A082EF02F084EF02F088EF02F075
:10050800080E0A26000E0B2281A28DEF02F08FEF53
:1005180002F093EF02F0040E0A26000E0B2281A4CB
:1005280098EF02F09AEF02F09EEF02F0020E0A2610
:10053800000E0B2281A6A3EF02F0A5EF02F0A7EFB1
:1005480002F00A4A0B2A0AC008F00BC009F0120090
:10055800096EFF0E0924F66EF76A7E0EF722080070
:10056800F5CF08F0D8900832D89008300F01486FBE
:10057800FF0E0924F66EF76A7E0EF7220800F5CF03
:1005880008F0030E0816083A47510818CF0B081848
:10059800476F1200096EFF0E0924F66EF76A7E0E89
:1005A800F7220800F5CF08F0D8900832D890083024
:1005B8000F014B6FFF0E0924F66EF76A7E0EF722C5
:1005C8000800F5CF08F0030E0816083A4A51081833
:1005D800CF0B08184A6F1200096EFF0E0924F66E39
:1005E800F76A7E0EF7220800F5CF08F0D890083297
:1005F800D89008300F014E6FFF0E0924F66EF76A87
:100608007E0EF7220800F5CF08F0030E0816083A08
:100618004D510818CF0B08184D6F1200096EFF0EC8
:100628000924F66EF76A7E0EF7220800F5CF08F067
:10063800D8900832D89008300F01516FFF0E092466
:10064800F66EF76A7E0EF7220800F5CF08F0030E63
:100658000816083A50510818CF0B0818506F1200A6
:10066800C40EF66E060EF76E000EF86E0900F5CF92
:1006780019F00CEE41F012EE00F0EE6AE550E15090
:10068800FCE1E250FAE100EE0DF0090EEE6AE80630
:10069800FDE11A901A92000EF86E0001DEEF00F0EC
:1006A800F2A459EF03F05BEF03F060EF03F0F2946C
:0D06B800000E146E000ED56E1A9211000196
:107EFE000048494A4B4B4C4D4D4E4F5050515252EB
:107F0E005354555556575758595A5A5B5C5C5D5EDB
:107F1E005F5F606161626364646566666768696914
:107F2E006A6B6B6C6D6E6E6F70707172727374754E
:107F3E007576777778797A7A7B7C7C7D7E7F7F8089
:107F4E00818182838484858686878889898A8B8BC2
:107F5E008C8D8E8E8F9090919293939495959697FB
:107F6E009898999A9A9B9C9D9D9E9F9FA0A1A2A234
:107F7E00A3A4A4A5A6A7A7A8A9A9AAABACACADAE6D
:107F8E00AEAFB0B1B1B2B3B3B4B5B6B6B7B8B8B9A7
:107F9E00BABBBBBCBDBDBEBFC0C0C1C2C2C3C4C5DF
:107FAE00C5C6C7C7C8C9CACACBCCCCCDCECFCFD019
:107FBE00D1D1D2D3D3D4D5D6D6D7D8D8D9DADBDB54
:107FCE00DCDDDDDEDFE0E0E1E2E2E3E4E5E5E6E78D
:107FDE00E7E8E9EAEAEBECECEDEEEFEFF0F1F1F2C7
:107FEE00F3F4F4F5F6F6F7F8F9F9FAFBFBFCFDFEFF
:027FFE00FF0082
:020000040020DA
:08000000FFFFFFFFFFFFFFFF00
:020000040030CA
:0E0000001503797CFF0991FF0FC00FE00F4040
:00000001FF
