:04000000AFEF00F06E
:100008003782FACF04F0FBCF05F0E9CF06F0EACF4C
:1000180007F0E1CF08F0E2CF09F0D9CF0AF0DACF44
:100028000BF0F3CF0CF0F4CF0DF0F6CF0EF0F7CFC6
:100038000FF0F8CF10F0F5CF11F0F2A46CD0F294D5
:10004800000E316E000ED56E66D0A6CF30F07ACF96
:1000580032F030A253D0A698A688000E366E5DD036
:1000680030B459D048D030A456D03250D8A453D048
:10007800020E42D030A402D0000E3ED03250D8A496
:100088003AD0000E2F6E000E2E6E040E35D030A41E
:1000980004D03250D8A4F0D7EBD7410E2E24D96E15
:1000A8000C0E2F20DA6E32C0DFFF2E4A2F2A000EE8
:1000B800D76E000ED66E850ED56E2FBE04D0020EFA
:1000C8002F5CD8B010D0040E3324016E000E3420FB
:1000D800026E01502E5C2F50800A036E0250800A77
:1000E8000358D8A002D0010E316E2FBE14D0020ED4
:1000F8002F5CD8A010D0010E366E0DD03650000AF5
:10010800D8B4AED7010AD8B4AED7030AD8B4B2D798
:10011800060AD8B4BCD7A4BA98D711C0F5FF10C046
:10012800F8FF0FC0F7FF0EC0F6FF0DC0F4FF0CC0BC
:10013800F3FF0BC0DAFF0AC0D9FF09C0E2FF08C00D
:10014800E1FF07C0EAFF06C0E9FF05C0FBFF04C0E6
:10015800FAFF379211001BEF03F09268CF0E936EEF
:100168003B0E946E7C0ED36E0F015051F00B0C09B0
:10017800506F0F014D51F00B0C094D6F0F014A5193
:10018800F00B0C094A6F0F014751F00B0C09476F30
:10019800000E996ECA92CA903C0ECB6ECA84000EAD
:1001A800F3EC02F0000ECBEC02F0000EA3EC02F030
:1001B800000E7BEC02F00F015D69000E0F015C6F11
:1001C800CF0EC116C196C150F80B0509C16EC09E6D
:1001D800C096C098C09AC080C082C084000E316E9C
:1001E800BA84B986BA98070E7B6E000E7C6EA68C10
:1001F800A69AA696A694A692A68EA688D09EA38A0C
:10020800A49A9D9CF28AF294F28EF28C8188000E58
:10021800346E000E336E000ED76E000ED66E850E4D
:10022800D56E000E356E0CEC02F012C033F013C020
:1002380034F0000E356EC28035C026F026462646BC
:10024800C2502618830B2618C26E2BD0060EE82E35
:10025800FED700D0C28200D000D000D0352A35C0E9
:1002680026F026462646C2502618830B2618C26E4C
:10027800C2B2FED7FF0E266EFF0E276E3550286ECF
:10028800296A26502826275029222A0E2824D96E82
:10029800000E2920DA6EC4CFDFFF000EC46E000EF8
:1002A800C36E030E3564D2D734BE0AD0FD0E335C5C
:1002B800010E3458D8A004D02D50A3EC02F027D05A
:1002C800030E3324266E000E3420276E410E26249A
:1002D800D96E0C0E2720DA6EDE502D5CD8B014D003
:1002E8003150D8A481A810D0030E3324266E000EF6
:1002F8003420276E410E2624D96E0C0E2720DA6E84
:10030800DF50A3EC02F003D02D50A3EC02F034BE72
:100318000AD0FE0E335C010E3458D8A004D02C50FD
:100328007BEC02F027D0020E3324266E000E342018
:10033800276E410E2624D96E0C0E2720DA6EDE5069
:100348002C5CD8B014D03150D8A481A810D0020E9B
:100358003324266E000E3420276E410E2624D96ED3
:100368000C0E2720DA6EDF507BEC02F003D02C5005
:100378007BEC02F034BE09D03328010E3458D8A0E3
:1003880004D02B50F3EC02F027D0010E3324266E54
:10039800000E3420276E410E2624D96E0C0E27201D
:1003A800DA6EDE502B5CD8B014D03150D8A481A8B6
:1003B80010D0010E3324266E000E3420276E410E15
:1003C8002624D96E0C0E2720DA6EDF50F3EC02F0EB
:1003D80003D02B50F3EC02F0410E3324D96E0C0EEF
:1003E8003420DA6EDE502A5CD8B00ED03150D8A452
:1003F80081A80AD0410E3324D96E0C0E3420DA6E4F
:10040800DF50CBEC02F00FD72A50CBEC02F00BD721
:10041800000E236E000E226E81CF24F082CF25F0CD
:100428002550020B146E156A060ED8901436153630
:10043800E82EFBD72550080B166E176AD89016368B
:100448001736D89016361736D890163617362550E0
:10045800100B186E196AD890183619362450010BEB
:100468001A6E1B6AD8901A361B36D8901A361B3665
:10047800D8901A361B362450020B1C6E1D6AD89071
:100488001C361D3624C01EF0D8901E32020E1E16D1
:100498002438E8461F0B010B1E101F6E206A1C50E3
:1004A8001F121D5020121A501F121B50201225C057
:1004B80021F0D8902132100E211621501F12000E63
:1004C800201218501F121950201216501F121750C0
:1004D800201214501F10226E15502010236E255024
:1004E800010B232622C012F023C013F01200136E52
:1004F8001350010DFF0EF324F66E7E0EF420F76EF6
:100508000800F5CF12F0D8901232D89012300F01AF
:10051800486F1350010DFF0EF324F66E7E0EF42083
:10052800F76E0800F5CF12F0030E1216123A0F01FB
:1005380047511218CF0B12180F01476F1200136E94
:100548001350010DFF0EF324F66E7E0EF420F76EA5
:100558000800F5CF12F0D8901232D89012300F015F
:100568004B6F1350010DFF0EF324F66E7E0EF42030
:10057800F76E0800F5CF12F0030E1216123A0F01AB
:100588004A511218CF0B12180F014A6F1200136E3E
:100598001350010DFF0EF324F66E7E0EF420F76E55
:1005A8000800F5CF12F0D8901232D89012300F010F
:1005B8004E6F1350010DFF0EF324F66E7E0EF420DD
:1005C800F76E0800F5CF12F0030E1216123A0F015B
:1005D8004D511218CF0B12180F014D6F1200136EE8
:1005E8001350010DFF0EF324F66E7E0EF420F76E05
:1005F8000800F5CF12F0D8901232D89012300F01BF
:10060800516F1350010DFF0EF324F66E7E0EF42089
:10061800F76E0800F5CF12F0030E1216123A0F010A
:1006280050511218CF0B12180F01506F1200760E8E
:10063800F66E060EF76E000EF86E0900F5CF36F06E
:100648000CEE41F012EE00F0EE6AE550E150FCE1EC
:10065800E250FAE100EE2AF0090EEE6AE806FDE142
:0F06680037903792000EF86E0001B1EF00F001ED
:107EFE000048494A4B4B4C4D4D4E4F5050515252EB
:107F0E005354555556575758595A5A5B5C5C5D5EDB
:107F1E005F5F606161626364646566666768696914
:107F2E006A6B6B6C6D6E6E6F70707172727374754E
:107F3E007576777778797A7A7B7C7C7D7E7F7F8089
:107F4E00818182838484858686878889898A8B8BC2
:107F5E008C8D8E8E8F9090919293939495959697FB
:107F6E009898999A9A9B9C9D9D9E9F9FA0A1A2A234
:107F7E00A3A4A4A5A6A7A7A8A9A9AAABACACADAE6D
:107F8E00AEAFB0B1B1B2B3B3B4B5B6B6B7B8B8B9A7
:107F9E00BABBBBBCBDBDBEBFC0C0C1C2C2C3C4C5DF
:107FAE00C5C6C7C7C8C9CACACBCCCCCDCECFCFD019
:107FBE00D1D1D2D3D3D4D5D6D6D7D8D8D9DADBDB54
:107FCE00DCDDDDDEDFE0E0E1E2E2E3E4E5E5E6E78D
:107FDE00E7E8E9EAEAEBECECEDEEEFEFF0F1F1F2C7
:107FEE00F3F4F4F5F6F6F7F8F9F9FAFBFBFCFDFEFF
:027FFE00FF0082
:020000040020DA
:08000000FFFFFFFFFFFFFFFF00
:020000040030CA
:0E0000001503797CFF0991FF0FC00FE00F4040
:00000001FF
