:04000000CCEF00F051
:100008001782D9CF0CF0DACF0DF0F2A40EEF00F082
:1000180010EF00F0BFEF00F0F294000E086E000E33
:10002800D56EBFEF00F0A6CF07F07ACF09F007A290
:1000380020EF00F022EF00F0A2EF00F0A698A688CB
:10004800000E166EC6EF00F007B42DEF00F02FEF8C
:1000580000F0BFEF00F0010E166EBFEF00F007A42E
:1000680038EF00F03AEF00F0BFEF00F00950D8A4E5
:1000780040EF00F042EF00F0BFEF00F0020E166E06
:10008800BFEF00F007A44BEF00F04DEF00F051EF89
:1000980000F0000E166EBFEF00F00950D8A457EF1D
:1000A80000F059EF00F02FEF00F0000E066E000E82
:1000B800056E040E166EBFEF00F007A466EF00F0A1
:1000C80068EF00F072EF00F00950D8A46EEF00F06E
:1000D80070EF00F04DEF00F042EF00F0410E052404
:1000E800D96E0C0E0620DA6E09C0DFFF054A062A13
:1000F800000ED76E000ED66E850ED56E000E055C0E
:10010800020E0658D8B08BEF00F08DEF00F09EEF8E
:1001180000F0040E13240A6E000E14200B6E0A5011
:10012800055C0B500658D8A09CEF00F09EEF00F03D
:10013800BFEF00F0010E086EBFEF00F016500A6E18
:100148000B6A0B50000AD8B4ACEF00F0BFEF00F018
:100158000A50000AD8B428EF00F0010AD8B433EFE7
:1001680000F0030AD8B446EF00F0060AD8B461EFED
:1001780000F0BFEF00F0A4BAC4EF00F0C6EF00F043
:1001880017EF00F00DC0DAFF0CC0D9FF179211006D
:1001980023EF03F0FC0ED316D3508F0B6009D36EF8
:1001A8009268DF0E936E3B0E946E0F015051F00B68
:1001B8000C09506F4D51F00B0C094D6F4A51F00B63
:1001C8000C094A6F4751F00B0C09476F000E996EE6
:1001D800CA92CA903C0ECB6ECA84000E01EC03F0A2
:1001E800000EDFEC02F0000EBDEC02F0000E9BECFE
:1001F80002F00F0E0F015D6F000E5C6FCF0EC1167F
:10020800C196F80EC116C09E380EC012C050F80B29
:100218000109C06EBA84B986BA98070E7B6E000EC3
:100228007C6EA68CA69AA696A694A692A68EA6885A
:10023800D09EA38AA49A9D9CF28AF294F28EF28CA4
:10024800000E146E000E136E000ED76E000ED66EE2
:10025800850ED56E000E156E33EC02F00EC013F04D
:100268000FC014F0000E156E64EF01F015C012F007
:10027800030E121612461246C2501218830B121899
:10028800C26EF80EC11600D000D000D0C280C28263
:10029800C2B251EF01F053EF01F04CEF01F0010E43
:1002A8001524D96EDA6A000EDA22C4CFDFFF000EF9
:1002B800C36E000EC46EC29000D000D000D0152AC4
:1002C800030E15646AEF01F06CEF01F03AEF01F0EC
:1002D800FD0E135C010E1458D8A075EF01F077EFEE
:1002E80001F07CEF01F00250BDEC02F0A1EF01F04B
:1002F800440E1324D96E0C0E1420DA6EDE50025C04
:10030800D8B089EF01F08BEF01F09EEF01F00850B3
:10031800D8B491EF01F093EF01F09EEF01F0440E95
:100328001324D96E0C0E1420DA6EDF50BDEC02F0E7
:10033800A1EF01F00250BDEC02F0FE0E135C010EBD
:100348001458D8A0AAEF01F0ACEF01F0B1EF01F01A
:1003580001509BEC02F0D6EF01F0430E1324D96E46
:100368000C0E1420DA6EDE50015CD8B0BEEF01F03E
:10037800C0EF01F0D3EF01F00850D8B4C6EF01F098
:10038800C8EF01F0D3EF01F0430E1324D96E0C0E21
:100398001420DA6EDF509BEC02F0D6EF01F001502A
:1003A8009BEC02F01328010E1458D8A0DEEF01F0E0
:1003B800E0EF01F0E5EF01F0045001EC03F00AEF83
:1003C80002F0420E1324D96E0C0E1420DA6EDE50A1
:1003D800045CD8B0F2EF01F0F4EF01F007EF02F09F
:1003E8000850D8B4FAEF01F0FCEF01F007EF02F083
:1003F800420E1324D96E0C0E1420DA6EDF5001EC75
:1004080003F00AEF02F0045001EC03F0410E13244C
:10041800D96E0C0E1420DA6EDE50035CD8B017EFDC
:1004280002F019EF02F02CEF02F00850D8B41FEFD9
:1004380002F021EF02F02CEF02F0410E1324D96EE6
:100448000C0E1420DA6EDF50DFEC02F030EF01F012
:100458000350DFEC02F030EF01F0CCEF00F0000EBB
:10046800116E000E106E82A03CEF02F03EEF02F01B
:1004780040EF02F0010E112682A245EF02F047EF8D
:1004880002F04BEF02F0800E1026000E112282A619
:1004980050EF02F052EF02F056EF02F0400E102635
:1004A800000E112282A85BEF02F05DEF02F061EF0F
:1004B80002F0200E1026000E112282AA66EF02F02A
:1004C80068EF02F06CEF02F0100E1026000E1122F9
:1004D80081A071EF02F073EF02F077EF02F0080EDF
:1004E8001026000E112281A27CEF02F07EEF02F0AE
:1004F80082EF02F0040E1026000E112281A487EF6D
:1005080002F089EF02F08DEF02F0020E1026000EC5
:10051800112281A692EF02F094EF02F096EF02F01A
:10052800104A112A10C00EF011C00FF012000F6E01
:10053800FF0E0F24F66EF76A7E0EF7220800F5CF3D
:100548000EF0D8900E32D8900E300F01486FFF0E83
:100558000F24F66EF76A7E0EF7220800F5CF0EF02C
:10056800030E0E160E3A47510E18CF0B0E18476F92
:1005780012000F6EFF0E0F24F66EF76A7E0EF7223A
:100588000800F5CF0EF0D8900E32D8900E300F013B
:100598004B6FFF0E0F24F66EF76A7E0EF7220800E7
:1005A800F5CF0EF0030E0E160E3A4A510E18CF0B69
:1005B8000E184A6F12000F6EFF0E0F24F66EF76AC0
:1005C8007E0EF7220800F5CF0EF0D8900E32D890A4
:1005D8000E300F014E6FFF0E0F24F66EF76A7E0E77
:1005E800F7220800F5CF0EF0030E0E160E3A4D5105
:1005F8000E18CF0B0E184D6F12000F6EFF0E0F2442
:10060800F66EF76A7E0EF7220800F5CF0EF0D89046
:100618000E32D8900E300F01516FFF0E0F24F66E78
:10062800F76A7E0EF7220800F5CF0EF0030E0E16BD
:100638000E3A50510E18CF0B0E18506F1200860E3E
:10064800F66E060EF76E000EF86E0900F5CF16F07E
:100658000CEE41F012EE00F0EE6AE550E150FCE1DC
:10066800E250FAE100EE01F0090EEE6AE806FDE15B
:0F06780017901792000EF86E0001CEEF00F00100
:107EFE000048494A4B4B4C4D4D4E4F5050515252EB
:107F0E005354555556575758595A5A5B5C5C5D5EDB
:107F1E005F5F606161626364646566666768696914
:107F2E006A6B6B6C6D6E6E6F70707172727374754E
:107F3E007576777778797A7A7B7C7C7D7E7F7F8089
:107F4E00818182838484858686878889898A8B8BC2
:107F5E008C8D8E8E8F9090919293939495959697FB
:107F6E009898999A9A9B9C9D9D9E9F9FA0A1A2A234
:107F7E00A3A4A4A5A6A7A7A8A9A9AAABACACADAE6D
:107F8E00AEAFB0B1B1B2B3B3B4B5B6B6B7B8B8B9A7
:107F9E00BABBBBBCBDBDBEBFC0C0C1C2C2C3C4C5DF
:107FAE00C5C6C7C7C8C9CACACBCCCCCDCECFCFD019
:107FBE00D1D1D2D3D3D4D5D6D6D7D8D8D9DADBDB54
:107FCE00DCDDDDDEDFE0E0E1E2E2E3E4E5E5E6E78D
:107FDE00E7E8E9EAEAEBECECEDEEEFEFF0F1F1F2C7
:107FEE00F3F4F4F5F6F6F7F8F9F9FAFBFBFCFDFEFF
:027FFE00FF0082
:020000040020DA
:08000000FFFFFFFFFFFFFFFF00
:020000040030CA
:0E0000001503797CFF0991FF0FC00FE00F4040
:00000001FF
