:04000000E1EF00F03C
:100008002882D9CF04F0DACF05F0F2A40EEF00F081
:1000180010EF00F0D4EF00F0F294000E226E000E04
:10002800D56ED4EF00F0A6CF21F07ACF23F021A22D
:1000380020EF00F022EF00F0B7EF00F0A698A688B6
:10004800000E276EDBEF00F021B42DEF00F02FEF4C
:1000580000F0D4EF00F0010E276ED4EF00F021A4D9
:1000680038EF00F03AEF00F0D4EF00F02350D8A4B6
:1000780040EF00F042EF00F0D4EF00F0020E276EE0
:10008800D4EF00F021A44BEF00F04DEF00F051EF5A
:1000980000F0000E276ED4EF00F02350D8A457EFDD
:1000A80000F059EF00F02FEF00F0000E206E000E68
:1000B8001F6E040E276ED4EF00F021A466EF00F047
:1000C80068EF00F072EF00F02350D8A46EEF00F054
:1000D80070EF00F04DEF00F042EF00F0410E1F24EA
:1000E800D96E0C0E2020DA6E23C0DFFF1F4A202AAB
:1000F800000ED76E000ED66E850ED56E20BE90EF20
:1001080000F0000E1F5C020E2058D8B08EEF00F0F1
:1001180090EF00F0A5EF00F0040E2424016E000E0D
:100128002520026E01501F5C2050800A036E025089
:10013800800A0358D8A0A3EF00F0A5EF00F0A7EFBE
:1001480000F0010E226E20BEB3EF00F0000E1F5C1F
:10015800020E2058D8A0B3EF00F0B5EF00F0D4EFAE
:1001680000F02FEF00F02750016E026A0250000ADB
:10017800D8B4C1EF00F0D4EF00F00150000AD8B4B1
:1001880028EF00F0010AD8B433EF00F0030AD8B41E
:1001980046EF00F0060AD8B461EF00F0D4EF00F0A3
:1001A800A4BAD9EF00F0DBEF00F017EF00F005C0BC
:1001B800DAFF04C0D9FF2892110064EF03F09268B7
:1001C800CF0E936E3B0E946E7C0ED36E0F01505182
:1001D800F00B0C09506F4D51F00B0C094D6F4A5143
:1001E800F00B0C094A6F4751F00B0C09476F000ED2
:1001F800996ECA92CA903C0ECB6ECA84000E42EC2D
:1002080003F0000E20EC03F0000EFEEC02F0000EEE
:10021800DCEC02F00F015D69000E5C6FCF0EC116B9
:10022800C196C150F80B0509C16EC09EC70EC01615
:10023800070EC012000E226EBA84B986BA98070E4D
:100248007B6E000E7C6EA68CA69AA696A694A692A5
:10025800A68EA688D09EA38AA49A9D9CF28AF29420
:10026800F28EF28C8188000E256E000E246E000E30
:10027800D76E000ED66E850ED56E000E266E70EC0B
:1002880002F006C024F007C025F0000E266EC280DA
:1002980026C01AF01A461A46C2501A18830B1A18A2
:1002A800C26E7CEF01F0060EE82EFED700D0C282A7
:1002B80000D000D000D0262A26C01AF01A461A46C6
:1002C800C2501A18830B1A18C26EC2B26EEF01F030
:1002D80070EF01F069EF01F01A0E2624D96EDA6A80
:1002E800000EDA22C4CFDFFF000EC46E000EC36E0C
:1002F800030E266482EF01F084EF01F057EF01F05E
:1003080025BE90EF01F0FD0E245C010E2558D8A003
:1003180090EF01F092EF01F097EF01F01E50FEEC24
:1003280002F0C3EF01F0440E2424D96E0C0E2520F0
:10033800DA6EDE501E5CD8B0A4EF01F0A6EF01F033
:10034800C0EF01F02250D8B4ACEF01F0AEEF01F0ED
:10035800C0EF01F081A8B3EF01F0B5EF01F0C0EFF5
:1003680001F0440E2424D96E0C0E2520DA6EDF50DD
:10037800FEEC02F0C3EF01F01E50FEEC02F025BEC9
:10038800CFEF01F0FE0E245C010E2558D8A0CFEF68
:1003980001F0D1EF01F0D6EF01F01D50DCEC02F0D6
:1003A80002EF02F0430E2424D96E0C0E2520DA6EDB
:1003B800DE501D5CD8B0E3EF01F0E5EF01F0FFEF90
:1003C80001F02250D8B4EBEF01F0EDEF01F0FFEFB0
:1003D80001F081A8F2EF01F0F4EF01F0FFEF01F076
:1003E800430E2424D96E0C0E2520DA6EDF50DCEC87
:1003F80002F002EF02F01D50DCEC02F025BE0DEF1A
:1004080002F02428010E2558D8A00DEF02F00FEFB6
:1004180002F014EF02F01C5042EC03F040EF02F03F
:10042800420E2424D96E0C0E2520DA6EDE501C5C98
:10043800D8B021EF02F023EF02F03DEF02F0225096
:10044800D8B429EF02F02BEF02F03DEF02F081A8BB
:1004580030EF02F032EF02F03DEF02F0420E2424BA
:10046800D96E0C0E2520DA6EDF5042EC03F040EF17
:1004780002F01C5042EC03F0410E2424D96E0C0EFD
:100488002520DA6EDE501B5CD8B04DEF02F04FEF3E
:1004980002F069EF02F02250D8B455EF02F057EF9E
:1004A80002F069EF02F081A85CEF02F05EEF02F063
:1004B80069EF02F0410E2424D96E0C0E2520DA6E65
:1004C800DF5020EC03F043EF01F01B5020EC03F069
:1004D80043EF01F0E1EF00F081CF18F082CF19F07F
:1004E8001950020B086E096A060ED89008360936AC
:1004F800E82E79EF02F01950080B0A6E0B6AD890B3
:100508000A360B36D8900A360B36D8900A360B3690
:100518001950100B0C6E0D6AD8900C360D36185009
:10052800010B0E6E0F6AD8900E360F36D8900E3625
:100538000F36D8900E360F361850020B106E116A0F
:10054800D8901036113618C012F0D8901232020E18
:1005580012161838E8461F0B010B1210136E146A96
:1005680010501312115014120E5013120F5014126F
:1005780019C015F0D8901532100E15161550131213
:10058800000E14120C5013120D5014120A501312AC
:100598000B50141208501310166E09501410176ED1
:1005A8001950010B172616C006F017C007F01200E5
:1005B800076EFF0E0724F66EF76A7E0EF722080014
:1005C800F5CF06F0D8900632D89006300F01486F64
:1005D800FF0E0724F66EF76A7E0EF7220800F5CFA5
:1005E80006F0030E0616063A47510618CF0B0618F2
:1005F800476F1200076EFF0E0724F66EF76A7E0E2D
:10060800F7220800F5CF06F0D8900632D8900630C9
:100618000F014B6FFF0E0724F66EF76A7E0EF72266
:100628000800F5CF06F0030E0616063A4A510618DA
:10063800CF0B06184A6F1200076EFF0E0724F66EDE
:10064800F76A7E0EF7220800F5CF06F0D89006323A
:10065800D89006300F014E6FFF0E0724F66EF76A2A
:100668007E0EF7220800F5CF06F0030E0616063AAE
:100678004D510618CF0B06184D6F1200076EFF0E6E
:100688000724F66EF76A7E0EF7220800F5CF06F00B
:10069800D8900632D89006300F01516FFF0E07240C
:1006A800F66EF76A7E0EF7220800F5CF06F0030E05
:1006B8000616063A50510618CF0B0618506F12004E
:1006C800080EF66E070EF76E000EF86E0900F5CFED
:1006D80027F00CEE41F012EE00F0EE6AE550E15022
:1006E800FCE1E250FAE100EE1BF0090EEE6AE806C2
:1006F800FDE128902892000EF86E0001E3EF00F06B
:0107080001EF
:107EFE000048494A4B4B4C4D4D4E4F5050515252EB
:107F0E005354555556575758595A5A5B5C5C5D5EDB
:107F1E005F5F606161626364646566666768696914
:107F2E006A6B6B6C6D6E6E6F70707172727374754E
:107F3E007576777778797A7A7B7C7C7D7E7F7F8089
:107F4E00818182838484858686878889898A8B8BC2
:107F5E008C8D8E8E8F9090919293939495959697FB
:107F6E009898999A9A9B9C9D9D9E9F9FA0A1A2A234
:107F7E00A3A4A4A5A6A7A7A8A9A9AAABACACADAE6D
:107F8E00AEAFB0B1B1B2B3B3B4B5B6B6B7B8B8B9A7
:107F9E00BABBBBBCBDBDBEBFC0C0C1C2C2C3C4C5DF
:107FAE00C5C6C7C7C8C9CACACBCCCCCDCECFCFD019
:107FBE00D1D1D2D3D3D4D5D6D6D7D8D8D9DADBDB54
:107FCE00DCDDDDDEDFE0E0E1E2E2E3E4E5E5E6E78D
:107FDE00E7E8E9EAEAEBECECEDEEEFEFF0F1F1F2C7
:107FEE00F3F4F4F5F6F6F7F8F9F9FAFBFBFCFDFEFF
:027FFE00FF0082
:020000040020DA
:08000000FFFFFFFFFFFFFFFF00
:020000040030CA
:0E0000001503797CFF0991FF0FC00FE00F4040
:00000001FF
